:100000000C940B010C94EF040C9462030C941D01EE
:100010000C941D010C941D010C941D010C941D01E8
:100020000C941D010C941D010C941D010C941D01D8
:100030000C9432080C941D010C941D010C941D01AC
:100040000C941D010C941D010C941D010C941D01B8
:100050000C946E020C941D010C941D010C941D0156
:100060000C941D010C941D010C941D010C941D0198
:100070000C941D010C941D010C941D012B53524135
:100080004D2052454720002B535045434946590DBA
:100090000A002B55415254204F564552464C4F575B
:1000A000002B5352414D20575249544520444F4E46
:1000B0004520002B5352414D205752495445204270
:1000C0005954455320002B494E54310D0A002B49F9
:1000D0004E543020444F4E4500524553554C540029
:1000E000524553554C540053454E5345002B494EF1
:1000F000543020002B4348524E004C4F5700484983
:100100004748002B44454E53495459200046414925
:100110004C454420464F5243452D524553455400CB
:10012000535543434545444544002B5245414449BA
:100130004420002B53454E534520002B444556493F
:10014000434520002B445220575249544520002B50
:100150004F5220575249544520002B5043415400E0
:100160002B42415345004142434445464748494A92
:100170004B4C4D4E4F505152535455565758595A57
:100180006162636465666768696A6B6C6D6E6F70E7
:100190007172737475767778797A30313233343599
:1001A000363738392B2F00434F4D4D414E440046D2
:1001B000534348524E0046484944454E0046434D3D
:1001C0004430410046575243525200465752444F22
:1001D000520046434D443046004641545253540069
:1001E000415247560053594E544158002B57454CE5
:1001F000434F4D4500434F4E4E4543544544002028
:10020000002B494E56414C494420002B4D4153543C
:1002100045520D0A000011241FBECFEFD8E0DEBF0B
:10022000CDBF11E0A0E0B1E001C01D92A138B1073F
:10023000E1F70E941F010C94BE080C9400001F936C
:1002400085B7806885BF85B7806885BF88E1809362
:10025000C10086E08093C2008091C10080688093D5
:10026000C1008091C0008D7F8093C0001092C500B6
:1002700083E18093C4008FE0809369008DB3836035
:100280008DBB80E48CBD1DBC8FEF84B915B880EFA9
:100290008AB980EB8BB985E080930A01789481E07C
:1002A0000E9421088FEF0E94C70780E00E9421086A
:1002B0000E94D6030E9400068CE10E944A0480E05E
:1002C0000E94A80580E00E9478058091080188239B
:1002D000E1F787E890E06AE00E94C0018CE00E94AC
:1002E0004A0481E00E94210888E00E94C70780E458
:1002F00090E00E9407088CE790E06AE00E94C0014D
:100300000E9414080E9423020E94DD0180E00E94E6
:1003100021080E94F80768E070E080E090E00E9409
:10032000EC0260E170E080E090E00E94B80281E0C1
:100330008093100111E080911001823021F40E941D
:10034000BA0610931001809110018330A1F7109329
:100350001001F1CF982F8091C1008F778093C10059
:100360008091C00085FFFCCF9093C6008091C000B3
:1003700086FFFCCF8091C10080688093C100089502
:10038000FC0190E017C024918091C1008F77809389
:10039000C1008091C00085FFFCCF2093C6008091F2
:1003A000C00086FFFCCF8091C10080688093C100AF
:1003B0009F5F3196961738F308958091C1008F772B
:1003C0008093C1008091C00085FFFCCF8DE08093B9
:1003D000C6008091C00086FFFCCF8091C10080687C
:1003E0008093C1008091C1008F778093C10080917C
:1003F000C00085FFFCCF8AE08093C6008091C000DA
:1004000086FFFCCF8091C10080688093C100089571
:10041000FC0115C08091C1008F778093C10080914D
:10042000C00085FFFCCF9093C6008091C00086FF7E
:10043000FCCF8091C10080688093C100319690818B
:10044000992341F70895DF93CF9300D0CDB7DEB75E
:10045000982F80E389838A83992381F0FE01329665
:10046000892F982F9F709A3010F4905D01C0995C8D
:10047000908382958F703197882399F79981809125
:10048000C1008F778093C1008091C00085FFFCCFB1
:100490009093C6008091C00086FFFCCF8091C10080
:1004A00080688093C1009A818091C1008F7780938A
:1004B000C1008091C00085FFFCCF9093C600809161
:1004C000C00086FFFCCF8091C10080688093C1008E
:1004D0000F900F90CF91DF91089508951F920F9282
:1004E0000FB60F9211242F933F934F935F936F9307
:1004F0007F938F939F93AF93BF93EF93FF939091CD
:100500000001A92FB0E08091C600FD01EF5EFE4F13
:10051000808380818D3019F080818A3059F4AF5EFC
:10052000BE4F1C92992399F01092000182E08093B3
:1005300010010DC09F3420F49F5F9093000107C00D
:1005400082E990E06EE00E94C0010E94DD01FF910F
:10055000EF91BF91AF919F918F917F916F915F913B
:100560004F913F912F910F900FBE0F901F901895B4
:10057000AF92BF92CF92DF92EF92FF920F931F93B1
:100580005B016C0181E00E94210880E090E00E9404
:10059000D007EE24FF2487010CC01EBC0DB407FE5B
:1005A000FDCF8EB50E9423020894E11CF11C011DB1
:1005B000111DEA14FB040C051D0578F30E94F607D3
:1005C00080E00E9421081F910F91FF90EF90DF9033
:1005D000CF90BF90AF900895AF92BF92CF92DF922D
:1005E000EF92FF920F931F935B016C0183EB90E0FE
:1005F0006CE00E94C001C601AA27BB270E9423020B
:10060000BB27AD2D9C2D8B2D0E9423028A2D0E948D
:1006100023020E94DD0181E00E94210860E070E079
:1006200080E090E00E94E3078091C1008F77809383
:10063000C100EE24FF24870119C08091C00087FF0C
:10064000FCCF6091C6006EBD809161019091620106
:100650000E94990690936201809361010DB407FE98
:10066000FDCF0894E11CF11C011D111DEA14FB04CF
:100670000C051D0510F38091C10080688093C100B6
:100680000E94F60780E00E94210881EA90E061E183
:100690000E94C0018091610190916201892F0E94A6
:1006A000230280916101909162010E9423020E94C5
:1006B000DD011F910F91FF90EF90DF90CF90BF90E1
:1006C000AF9008951F920F920FB60F9211242F939F
:1006D0003F934F935F936F937F938F939F93AF93CA
:1006E000BF93EF93FF9386EC90E067E00E94C00118
:1006F000FF91EF91BF91AF919F918F917F916F91FA
:100700005F914F913F912F910F900FBE0F901F90CF
:1007100018951F93182F83E091E069E00E94C001B3
:10072000112329F02B9A8EEF90E064E004C02B98FF
:100730008AEF90E063E00E94C0010E94DD011F91FA
:100740000895CF93DF9380936B0160936C01409386
:100750006D0120936E0184EF90E065E00E94C0017E
:10076000C0E0D0E080E20E94AA01FE01E559FE4F00
:1007700080810E9423022196C430D10599F70E94FE
:10078000DD01DF91CF9108950E945B068FE488B967
:10079000429886E08A95F1F7000080B180930901C4
:1007A00088B1846188B98091090108958FEF87B974
:1007B0009FE598B990E89BB996E09A95F1F700000B
:1007C0005F98ECECF1E03197F1F700C00000809306
:1007D0000B0180930C0180930D0180930E010E9408
:1007E000C40330910B0180910C0190910D01209177
:1007F0000E01832B892B822B82FDF3CF80E691E0C3
:1008000065E00E94C0010E94DD0108958FE688B96D
:100810000E945B06429800C000C080B1429A00C0AE
:1008200000C008950E94C40380910901807D803D2D
:1008300039F08CEC91E00197F1F700C00000F2CFA5
:1008400008950E94C40380910901807C803839F0AA
:100850008CEC91E00197F1F700C00000F2CF089511
:100860001F93182F84E491E06AE00E94C001812F59
:100870000E9423020E94DD010E945E0612B900C0A0
:1008800000C086E588B900C000C088B1896088B919
:100890001F9108951F93182F82FF09C08FEF809337
:1008A0000B0180930C0180930D0180930E018FE466
:1008B00091E06AE00E94C001812F0E9423020E9401
:1008C000DD010E945E0612B986E08A95F1F700000C
:1008D00085E588B986E08A95F1F7000088B18A60DD
:1008E00088B91F9108951F93182F8FE688B90E9429
:1008F0005E0612B986E08A95F1F70000439800C0C1
:1009000000C0439A00C000C01F91089587E0809303
:1009100008010E94C40380910901887F803839F062
:100920008CEC91E00197F1F700C00000F2CF88E075
:100930000E9473040E945B060E94C4038091090117
:10094000887F803D39F08CEC91E00197F1F700C091
:100950000000F2CF4498459A96E09A95F1F700008E
:10096000429886E08A95F1F7000080B180936A0191
:10097000429A80916A01803819F10E94C4038091E3
:100980000901803D39F08CEC91E00197F1F700C04E
:100990000000F3CF4498459A96E09A95F1F700004D
:1009A000429886E08A95F1F70000429AE0916A0148
:1009B000F0E0E370F07080916A01E55FFE4F8083A4
:1009C000449A83E391E067E00E94C00180916A014C
:1009D0000E9423020E94DD0180916A0108951F9206
:1009E0000F920FB60F9211240F931F932F933F93E3
:1009F0004F935F936F937F938F939F93AF93BF9327
:100A0000CF93DF93EF93FF938DEE90E066E00E942B
:100A1000C0010E94C4038093090180910901807C78
:100A2000803871F487EE90E065E00E94C0010E947A
:100A3000DD010E94860480916A018038D1F73AC0B6
:100A400080EE90E066E00E94C0010E94DD0189ED29
:100A500090E066E00E94C001C0E0D0E00E94120475
:100A60000E9406048E010D591E4FF801808380E21A
:100A70000E94AA01F80180810E9423022196C330BE
:100A8000D10561F7C0E0D0E00E9412040E94060484
:100A90008E010A591E4FF801808380E20E94AA014C
:100AA000F80180810E9423022196C430D10561F7AC
:100AB0000E94DD018EEC90E06AE00E94C0010E947D
:100AC000DD0110920801FF91EF91DF91CF91BF916D
:100AD000AF919F918F917F916F915F914F913F91D6
:100AE0002F911F910F910F900FBE0F901F9018958F
:100AF0001F93182F87E0809308010E94210487E04C
:100B00000E9473040E942104812F0E947304449A5E
:100B10001F9108950F931F93182F062F8FE0809336
:100B200008010E9421048FE00E9473040E942104A6
:100B3000812F0E9473040E942104802F0E9473045D
:100B4000449A809108018823E1F71F910F9108953D
:100B50001F93182F0E94210484E00E9473040E94B6
:100B60002104812F0E9473040E94C4038091090113
:100B7000803D39F08CEC91E00197F1F700C0000066
:100B8000F3CF0E945B064498459A96E09A95F1F758
:100B90000000429886E08A95F1F7000080B18093CA
:100BA0006A01429A449A8BE391E068E00E94C00196
:100BB00080916A010E9423020E94DD0180916A01F6
:100BC0001F9108950F931F93182F062F83E0809392
:100BD00008010E94210483E00E9473040E94210402
:100BE000812F0E9473040E942104802F0E947304AD
:100BF000449A83E08A95F1F700001F910F910895C0
:100C000080E00E944A048CE00E944A0430910B016B
:100C100080910C0190910D0120910E01832B892B65
:100C2000822B82FDF3CF83E360E00E94E2058AE538
:100C300091E065E00E94C0010E94DD0108951F93CC
:100C4000182F8AE0809308010E942104812F80746C
:100C50008A600E9473040E942104812F87700E9481
:100C600073040E944B0880910801882331F0909111
:100C70000F0180910A019817B0F30E9443088AE29D
:100C800091E068E00E94C00180910801882341F44E
:100C900080E291E069E00E94C0010E94DD0109C08C
:100CA0008DE091E062E10E94C0010E94DD010E949E
:100CB00000061F91089511B812B808958FEF81B9F9
:100CC0000895FC0120E030E02FC0842F80538A304B
:100CD00058F4C90154E0880F991F5A95E1F7242F61
:100CE00030E0205330401DC0842F8156863058F4A8
:100CF000C90134E0880F991F3A95E1F7242F30E0BD
:100D0000275530400EC0842F8154863060F4C901CD
:100D100024E0880F991F2A95E1F7242F30E027530C
:100D20003040280F391F31964081442371F6C901A4
:100D30000895492F50E0382F20E0422B532B70E0CC
:100D400046275727842F82958F7090E08427952718
:100D5000AC01542F44275295507F482759279A01B8
:100D6000307065E0220F331F6A95E1F7242735279D
:100D7000C9010895CF93DF93809111018B3209F45B
:100D800003C18BE20E94AA0181E191E065EF71E06D
:100D90000E947F08892B51F481E191E00E940802B2
:100DA0000E94DD018CEE91E068E0EAC081E191E013
:100DB0006FEF71E00E947A08BC01009741F0FC01DE
:100DC00001900020E9F73797E817F90779F081E1FA
:100DD00091E00E9408020E94DD0181E092E069E05A
:100DE0000E94C00185EE91E066E0CAC089E791E00B
:100DF0000E94AF0810928001CFE6D1E080E090E041
:100E00006FEF71E00E947A089C01009779F1809160
:100E100080018F5F80938001D9010D900020E9F758
:100E20001197A21BB30BA430B10529F4C901029696
:100E30000E94610605C0149750F4C9010E945C0825
:100E40008883219681E0C937D807C1F60FC081E1B8
:100E500091E00E9408020E94DD0181E092E069E0D9
:100E60000E94C00180EE91E064E08AC089E791E0D1
:100E70000E94080280E20E94AA01C0E0D0E00AC0FD
:100E8000FE01E159FE4F80810E94230280E20E9410
:100E9000AA0121968091800190E0C817D90784F3B8
:100EA0000E94DD0189E791E069ED71E00E947F0811
:100EB000892B19F40E94000667C089E791E062ED72
:100EC00071E00E947F08892B39F480916F01609155
:100ED00070010E948A0558C089E791E06BEC71E0CF
:100EE0000E947F08892B29F480916F010E944A0497
:100EF0004BC089E791E064EC71E00E947F08892B88
:100F000029F480916F010E9430043EC089E791E08E
:100F10006DEB71E00E947F08892B29F480916F01AD
:100F20000E941F0631C089E791E066EB71E00E94E4
:100F30007F08892B31F480916F0190E00E94890332
:100F400023C089E791E06FEA71E00E947F08892B56
:100F500079F460917001409171012091720180914A
:100F60006F0190E070E050E030E00E94A1030CC0FF
:100F700081E092E069E00E94C00187EA91E067E0C9
:100F80000E94C0010E94DD01DF91CF9108958093FE
:100F900001018EBD0DB407FEFDCF5D985D9A0895E9
:100FA0005C9883E08EBD0DB407FEFDCF1EBC0DB472
:100FB00007FEFDCF1EBC0DB407FEFDCF1EBC0DB459
:100FC00007FEFDCF08955C9882E08EBD0DB407FE4C
:100FD000FDCF1EBC0DB407FEFDCF1EBC0DB407FE39
:100FE000FDCF1EBC0DB407FEFDCF08955C9A089599
:100FF0001092020110920301109204011092050157
:101000008FEF9FEF90936201809361010895982F75
:101010005C9881E08EBD0DB407FEFDCF9EBD0DB482
:1010200007FEFDCF5C9A08955C9885E08EBD0DB4F7
:1010300007FEFDCF1EBC0DB407FEFDCF8EB55C9A3A
:101040000895882359F08BE092E069E00E94C00186
:101050001CBC84B1806B84B980E502C01CBC80E4F8
:101060008CBD08951F920F920FB60F9211248F938B
:1010700080910F018F5F80930F018F910F900FBEB2
:101080000F901F9018951092800088E18093810046
:1010900010926F000895109280008DE1809381007E
:1010A00080E596E4909387008093860080E28093A9
:1010B0006F0010920F010895FC0188279927E8948A
:1010C00021912032E9F3293010F02E30C8F32B3271
:1010D00041F02D3239F4689404C00E94B608820FA2
:1010E000911D219120532A30C0F31EF490958195D3
:1010F0009F4F089546E051E00E9488080895FB0143
:10110000DC018D91059080190110D9F3990B089598
:10111000FA01A191B081009719F41097E1F0CD0187
:10112000DC01CD010D90002011F4C00113C0FB01C2
:101130002591222319F02015D9F7F3CFFB01259132
:10114000201519F41E92119606C02223C1F70D90A6
:101150000020A1F7D001FA01A193B0830895FB010B
:10116000DC0101900D920020E1F708957AE0979F4D
:10117000902D879F802D910D11240895F894FFCF15
:00000001FF
